:020000040800F2
:1000000000500020FD1C00080D1B0008131B0008F9
:10001000191B00081F1B0008251B0008000000001A
:100020000000000000000000000000002B1B000882
:10003000371B000800000000431B00084F1B00088E
:10004000451D0008451D0008451D0008451D000808
:10005000451D0008451D0008451D0008451D0008F8
:10006000451D0008451D0008451D0008451D0008E8
:10007000451D0008451D0008451D0008451D0008D8
:10008000451D0008451D0008451D0008451D0008C8
:10009000451D0008451D0008451D0008451D0008B8
:1000A000451D0008451D0008451D00085D1B000892
:1000B000451D0008451D0008451D0008451D000898
:1000C000451D0008451D0008451D0008451D000888
:1000D000451D0008451D0008451D0008451D000878
:1000E000451D0008451D0008451D000800000000D2
:1000F0000000000000000000000000000000000000
:0C01000000000000000000005FF808F1A3
:1001100010B5054C237833B9044B13B10448AFF341
:1001200000800123237010BDE001002000000000CA
:10013000948C000808B5034B1BB103490348AFF387
:10014000008008BD00000000E4010020948C00083D
:10015000034613F8012B002AFBD1181A0138704707
:1001600081F0004102E000BF83F0004330B54FEA68
:1001700041044FEA430594EA050F08BF90EA020FD5
:100180001FBF54EA000C55EA020C7FEA645C7FEA68
:10019000655C00F0E2804FEA5454D4EB5555B8BF8B
:1001A0006D420CDD2C4480EA020281EA030382EAFC
:1001B000000083EA010180EA020281EA0303362D8E
:1001C00088BF30BD11F0004F4FEA01314FF4801C61
:1001D0004CEA113102D0404261EB410113F0004F73
:1001E0004FEA03334CEA133302D0524263EB43032A
:1001F00094EA050F00F0A780A4F10104D5F1200EC8
:100200000DDB02FA0EFC22FA05F2801841F1000122
:1002100003FA0EF2801843FA05F359410EE0A5F1F6
:1002200020050EF1200E012A03FA0EFC28BF4CF027
:10023000020C43FA05F3C01851EBE37101F00045DD
:1002400007D54FF0000EDCF1000C7EEB00006EEBEA
:100250000101B1F5801F1BD3B1F5001F0CD3490874
:100260005FEA30004FEA3C0C04F101044FEA4452CB
:1002700012F5800F80F09A80BCF1004F08BF5FEA52
:10028000500C50F1000041EB045141EA050130BD32
:100290005FEA4C0C404141EB0101013C28BFB1F544
:1002A000801FE9D291F0000F04BF01460020B1FA8F
:1002B00081F308BF2033A3F10B03B3F120020CDA62
:1002C0000C3208DD02F1140CC2F10C0201FA0CF040
:1002D00021FA02F10CE002F11402D8BFC2F1200CA5
:1002E00001FA02F120FA0CFCDCBF41EA0C0190405B
:1002F000E41AA2BF01EB0451294330BD6FEA0404A4
:100300001F3C1CDA0C340EDC04F11404C4F120028E
:1003100020FA04F001FA02F340EA030021FA04F3A0
:1003200045EA030130BDC4F10C04C4F1200220FAF7
:1003300002F001FA04F340EA0300294630BD21FA35
:1003400004F0294630BD94F0000F83F4801306BFFB
:1003500081F480110134013D4EE77FEA645C18BFEF
:100360007FEA655C29D094EA050F08BF90EA020F86
:1003700005D054EA000C04BF1946104630BD91EA7E
:10038000030F1EBF0021002030BD5FEA545C05D181
:100390004000494128BF41F0004130BD14F58004C0
:1003A0003CBF01F5801130BD01F0004545F0FE4134
:1003B00041F470014FF0000030BD7FEA645C1ABF69
:1003C000194610467FEA655C1CBF0B46024650EAA0
:1003D000013406BF52EA033591EA030F41F40021CC
:1003E00030BD00BF90F0000F04BF0021704730B552
:1003F0004FF4806404F132044FF000054FF0000127
:1004000050E700BF90F0000F04BF0021704730B5E7
:100410004FF4806404F1320410F0004548BF4042BC
:100420004FF000013EE700BF42004FEAE2014FEA11
:1004300031014FEA02701FBF12F07F4393F07F4FEC
:1004400081F06051704732F07F4208BF704793F0EF
:100450007F4F04BF41F40021704730B54FF4607402
:1004600001F0004521F000411CE700BF50EA010205
:1004700008BF704730B54FF000050AE050EA0102AE
:1004800008BF704730B511F0004502D5404261EB1E
:1004900041014FF4806404F132045FEA915C3FF45F
:1004A000D8AE4FF003025FEADC0C18BF03325FEAFC
:1004B000DC0C18BF033202EBDC02C2F1200300FAAD
:1004C00003FC20FA02F001FA03FE40EA0E0021FAD2
:1004D00002F11444BDE600BF70B54FF0FF0C4CF4C0
:1004E000E06C1CEA11541DBF1CEA135594EA0C0F72
:1004F00095EA0C0F00F0DEF82C4481EA030621EAAD
:100500004C5123EA4C5350EA013518BF52EA0335E7
:1005100041F4801143F4801338D0A0FB02CE4FF099
:100520000005E1FB02E506F00042E0FB03E54FF0C9
:100530000006E1FB03569CF0000F18BF4EF0010EC1
:10054000A4F1FF04B6F5007F64F5407404D25FEABD
:100550004E0E6D4146EB060642EAC62141EA555170
:100560004FEAC52040EA5E504FEACE2EB4F1FD0CB2
:1005700088BFBCF5E06F1ED8BEF1004F08BF5FEA30
:10058000500E50F1000041EB045170BD06F00046E2
:1005900046EA010140EA020081EA0301B4EB5C048F
:1005A000C2BFD4EB0C0541EA045170BD41F4801187
:1005B0004FF0000E013C00F3AB8014F1360FDEBFAC
:1005C000002001F0004170BDC4F10004203C35DA88
:1005D0000C341BDC04F11404C4F1200500FA05F30B
:1005E00020FA04F001FA05F240EA020001F00042AC
:1005F00021F0004110EBD37021FA04F642EB060122
:100600005EEA430E08BF20EAD37070BDC4F10C044B
:10061000C4F1200500FA04F320FA05F001FA04F20F
:1006200040EA020001F0004110EBD37041F10001FB
:100630005EEA430E08BF20EAD37070BDC4F1200506
:1006400000FA05F24EEA020E20FA04F301FA05F26E
:1006500043EA020321FA04F001F0004121FA04F216
:1006600020EA020000EBD3705EEA430E08BF20EAE6
:10067000D37070BD94F0000F0FD101F00046400020
:1006800041EB010111F4801F08BF013CF7D041EAA2
:10069000060195F0000F18BF704703F000465200A6
:1006A00043EB030313F4801F08BF013DF7D043EA77
:1006B0000603704794EA0C0F0CEA135518BF95EA2D
:1006C0000C0F0CD050EA410618BF52EA4306D1D1B4
:1006D00081EA030101F000414FF0000070BD50EAD3
:1006E000410606BF1046194652EA430619D094EA5D
:1006F0000C0F02D150EA013613D195EA0C0F05D147
:1007000052EA03361CBF104619460AD181EA03019A
:1007100001F0004141F0FE4141F470014FF0000052
:1007200070BD41F0FE4141F4780170BD70B54FF0ED
:10073000FF0C4CF4E06C1CEA11541DBF1CEA13556D
:1007400094EA0C0F95EA0C0F00F0A7F8A4EB05044F
:1007500081EA030E52EA03354FEA013100F0888046
:100760004FEA03334FF0805545EA131343EA12630F
:100770004FEA022245EA111545EA10654FEA0026C4
:100780000EF000419D4208BF964244F1FD0404F57D
:10079000407402D25B084FEA3202B61A65EB0305D9
:1007A0005B084FEA32024FF480104FF4002CB6EB96
:1007B000020E75EB030E22BFB61A754640EA0C0016
:1007C0005B084FEA3202B6EB020E75EB030E22BF56
:1007D000B61A754640EA5C005B084FEA3202B6EB97
:1007E000020E75EB030E22BFB61A754640EA9C0056
:1007F0005B084FEA3202B6EB020E75EB030E22BF26
:10080000B61A754640EADC0055EA060E18D04FEAE3
:10081000051545EA16754FEA06164FEAC30343EA83
:1008200052734FEAC2025FEA1C1CC0D111F4801F50
:100830000BD141EA00014FF000004FF0004CB6E749
:1008400011F4801F04BF01430020B4F1FD0C88BFE8
:10085000BCF5E06F3FF6AFAEB5EB030C04BFB6EBF3
:10086000020C5FEA500C50F1000041EB045170BDE6
:100870000EF0004E4EEA113114EB5C04C2BFD4EB13
:100880000C0541EA045170BD41F480114FF0000E97
:10089000013C90E645EA060E8DE60CEA135594EA13
:1008A0000C0F08BF95EA0C0F3FF43BAF94EA0C0F16
:1008B0000AD150EA01347FF434AF95EA0C0F7FF48B
:1008C00025AF104619462CE795EA0C0F06D152EADF
:1008D00003353FF4FDAE1046194622E750EA4106C3
:1008E00018BF52EA43067FF4C5AE50EA41047FF4D4
:1008F0000DAF52EA43057FF4EBAE12E74FF0FF3C39
:1009000006E000BF4FF0010C02E000BF4FF0010C09
:100910004DF804CD4FEA410C7FEA6C5C4FEA430C82
:1009200018BF7FEA6C5C1BD001B050EA410C0CBFD1
:1009300052EA430C91EA030F02BF90EA020F002033
:10094000704710F1000F91EA030F58BF994208BF9A
:1009500090422CBFD8176FEAE37040F00100704757
:100960004FEA410C7FEA6C5C02D150EA013C07D1AE
:100970004FEA430C7FEA6C5CD6D152EA033CD3D0F9
:100980005DF8040B704700BF8446104662468C46F3
:100990001946634600E000BF01B5FFF7B7FF002826
:1009A00048BF10F1000F01BD4DF808EDFFF7F4FF4F
:1009B0000CBF012000205DF808FB00BF4DF808EDDA
:1009C000FFF7EAFF34BF012000205DF808FB00BFFD
:1009D0004DF808EDFFF7E0FF94BF012000205DF81F
:1009E00008FB00BF4DF808EDFFF7CEFF94BF0120D4
:1009F00000205DF808FB00BF4DF808EDFFF7C4FFCD
:100A000034BF012000205DF808FB00BF4FEA410C15
:100A10007FEA6C5C02D150EA013C0AD14FEA430CF8
:100A20007FEA6C5C02D152EA033C02D14FF0000035
:100A300070474FF0010070474FEA410212F5001273
:100A400015D211D56FF47873B3EB625212D94FEA15
:100A5000C12343F0004343EA505311F0004F23FAFF
:100A600002F018BF404270474FF00000704750EA54
:100A7000013005D111F0004008BF6FF00040704711
:100A80004FF00000704700BF4A0011D212F500126B
:100A900011D20DD56FF47873B3EB62520ED44FEAD6
:100AA000C12343F0004343EA505323FA02F0704756
:100AB0004FF00000704750EA013002D14FF0FF3094
:100AC00070474FF0000070474FEA4102B2F1E04337
:100AD00024BFB3F5001CDCF1FE5C0DD901F0004C25
:100AE0004FEAC0024CEA5070B2F1004F40EB830075
:100AF00008BF20F00100704711F0804F21D113F1A1
:100B00003872BCBF01F00040704741F480114FEAD9
:100B10005252C2F11802C2F1200C10FA0CF320FA62
:100B200002F018BF40F001004FEAC1234FEAD3237F
:100B300003FA0CFC40EA0C0023FA02F34FEA4303E9
:100B4000CCE77FEA625307D150EA01331EBF4FF072
:100B5000FE4040F44000704701F0004040F0FE408D
:100B600040F40000704700BF80F0004002E000BF8A
:100B700081F0004142001FBF5FEA410392EA030F88
:100B80007FEA226C7FEA236C6AD04FEA1262D2EBD2
:100B90001363C1BFD218414048404140B8BF5B42D7
:100BA000192B88BF704710F0004F40F4000020F070
:100BB0007F4018BF404211F0004F41F4000121F086
:100BC0007F4118BF494292EA030F3FD0A2F10102D0
:100BD00041FA03FC10EB0C00C3F1200301FA03F10E
:100BE00000F0004302D5494260EB4000B0F5000F31
:100BF00013D3B0F1807F06D340084FEA310102F1F0
:100C00000102FE2A51D2B1F1004F40EBC25008BFA1
:100C100020F0010040EA03007047490040EB00006B
:100C2000013A28BFB0F5000FEDD2B0FA80FCACF16C
:100C3000080CB2EB0C0200FA0CF0AABF00EBC25099
:100C400052421843BCBFD0401843704792F0000F87
:100C500081F4000106BF80F400000132013BB5E7DA
:100C60004FEA41037FEA226C18BF7FEA236C21D050
:100C700092EA030F04D092F0000F08BF08467047B5
:100C800090EA010F1CBF0020704712F07F4F04D183
:100C9000400028BF40F00040704712F100723CBF96
:100CA00000F50000704700F0004343F0FE4040F4C0
:100CB000000070477FEA226216BF08467FEA23637E
:100CC0000146420206BF5FEA412390EA010F40F469
:100CD000800070474FF0000304E000BF10F00043B5
:100CE00048BF40425FEA000C08BF704743F096439C
:100CF00001464FF000001CE050EA010208BF7047B7
:100D00004FF000030AE000BF50EA010208BF70473D
:100D100011F0004302D5404261EB41015FEA010C52
:100D200002BF84460146002043F0B64308BFA3F14A
:100D30008053A3F50003BCFA8CF2083AA3EBC2532C
:100D400010DB01FA02FC634400FA02FCC2F120024B
:100D5000BCF1004F20FA02F243EB020008BF20F082
:100D60000100704702F1200201FA02FCC2F12002E8
:100D700050EA4C0021FA02F243EB020008BF20EADD
:100D8000DC70704738B505460C4600220023284623
:100D90002146FFF713FE28B928462146BDE8384012
:100DA00000F00AB8284604F1004100F005F840427E
:100DB00061EB410138BD00BFD0B500220B4B0646A8
:100DC0000F46FFF789FBFFF75FFE0446FFF70AFBBC
:100DD0000022074BFFF780FB02460B4630463946A0
:100DE000FFF7C2F9FFF750FE2146D0BD0000F03DED
:100DF0000000F0410000000080B582B000AF7860D4
:100E00007B681B7F012B40F08380454B1B78002BB8
:100E10001AD10021786802F0D9FF0346414A1360D5
:100E20003F4B01221A707B681B681A6A7B681B683B
:100E300022F00A021A627B681B681A6A7B681B68C8
:100E400042F002021A6263E0354B1B78012B5FD13E
:100E50000021786802F0BAFF0346334A13607B68CA
:100E60001B6800225A62304B1A682E4B1B689A424C
:100E700007D92D4B1A682B4B1B68D31A2B4A1360CA
:100E80000FE0284B1A68284B1B689A4209D9264B59
:100E90001A68244B1B68D31A03F57F43FF33234A98
:100EA0001360224B1B681846FFF79CFA1AA3D3E97C
:100EB0000023FFF711FB02460B46104619464FF080
:100EC00000024FF08043FFF731FC02460B4610460C
:100ED0001946FFF7D9FD03469AB2154B1A80104BFD
:100EE00000221A707B681B681A6A7B681B6822F0F4
:100EF0000A021A627B681A687B681B68126A1A62A7
:100F00000C4B1B68DA680B4B1B6822F00202DA609C
:100F100000BF0837BD4680BD9CC420B07268A13FA9
:100F20000A020020FC010020000200200402002030
:100F3000080200206002002080B500AF00224FF4BC
:100F40000041044801F02FFA0021034802F0C6FBDB
:100F500000BF80BD000C01406002002080B500AFE2
:100F600001224FF400410F4801F01DFA0E4B1B689F
:100F700000225A6200BF0C4B1B685B6A092BFAD92E
:100F800000224FF40041074801F00DFA064B1B68A0
:100F9000DA68054B1B6842F00202DA60034B1B88DB
:100FA000184680BD000C01406002002008020020AD
:100FB00080B586B002AF0346FB71FB7923F00F03C7
:100FC000FB73FB791B01BB73FB7B43F00C03DBB2B0
:100FD0003B72FB7B43F00803DBB27B72BB7B43F0CD
:100FE0000C03DBB2BB72BB7B43F00803DBB2FB72CA
:100FF00007F108026423009304234E21034801F003
:101000002FFB00BF1037BD4680BD00BF0C02002083
:1010100080B586B002AF0346FB71FB7923F00F0366
:10102000FB73FB791B01BB73FB7B43F00D03DBB24E
:101030003B72FB7B43F00903DBB27B72BB7B43F06B
:101040000D03DBB2BB72BB7B43F00903DBB2FB7267
:1010500007F108026423009304234E21034801F0A2
:10106000FFFA00BF1037BD4680BD00BF0C02002054
:1010700080B582B000AF8020FFF79AFF00237B602D
:1010800005E02020FFF7C4FF7B6801337B607B68AD
:10109000452BF6DD00BF00BF0837BD4680BD80B5DB
:1010A00082B000AF786039607B68002B03D07B682A
:1010B000012B05D009E03B6843F080033B6004E06E
:1010C0003B6843F0C0033B6000BF3B68DBB218469F
:1010D000FFF76EFF00BF0837BD4680BD80B500AF8B
:1010E000322000F093FE3020FFF762FF052000F071
:1010F0008DFE3020FFF75CFF012000F087FE3020DE
:10110000FFF756FF0A2000F081FE2020FFF750FF76
:101110000A2000F07BFE2820FFF74AFF012000F0A4
:1011200075FE0820FFF744FF012000F06FFE01204C
:10113000FFF73EFF012000F069FE012000F066FE8F
:101140000620FFF735FF012000F060FE0C20FFF7BE
:101150002FFF00BF80BD80B582B000AF786006E091
:101160007B685A1C7A601B781846FFF751FF7B6832
:101170001B78002BF4D100BF00BF0837BD4680BDEF
:1011800080B483B000AF0346FB80084B1B6800228D
:101190005A6200BF054B1B685A6AFB889A42F9D312
:1011A00000BF00BF0C37BD4680BC7047A8020020BE
:1011B00080B586B000AF0023FB753B1D00221A608E
:1011C0005A609A60DA604FF400737B600123BB6061
:1011D00002233B610023FB603B1D19462C4800F0B5
:1011E00047FF00224FF40071294801F0DCF8142079
:1011F00000F00CFE01224FF40071254801F0D3F8F5
:101200001E20FFF7BDFF0023BB600123FB603B1DD9
:1012100019461F4800F02CFF2820FFF7B1FF4FF4BC
:1012200000711B4801F0A8F80346002B0CD1502098
:10123000FFF7A6FF4FF40071154801F09DF8034633
:10124000002B01D00123FB7500F0D6FD0346114AA7
:10125000136000F0D1FD03460F4A136004E000F074
:10126000CBFD03460C4A13604FF40071084801F0AF
:1012700083F80346002B06D0064B1B689A1C064BCE
:101280001B689A42EBD8FB7D18461837BD4680BDD7
:10129000000C0140180300201C03002080B582B020
:1012A00000AF0023FB7166E000F0A6FD0346364A5E
:1012B000136000F0A1FD0346344A136004E000F01F
:1012C0009BFD0346314A13604FF40071304801F032
:1012D00053F80346002B06D12B4B1B689A1C2B4B53
:1012E0001B689A42EBD82820FFF74AFF4FF40071A1
:1012F000274801F041F80346002B0ED1FB79C3F1DA
:101300000703012202FA03F35BB2DB435AB297F9F7
:10131000063013405BB2BB710BE0FB79C3F10703EE
:10132000012202FA03F35AB297F9063013435BB273
:10133000BB7100F061FD0346134A136000F05CFDD1
:101340000346124A136004E000F056FD03460F4ABC
:1013500013604FF400710E4801F00EF80346002BA5
:1013600006D0094B1B689A1C084B1B689A42EBD8A5
:10137000FB790133FB71FB79072B95D9BB791846B3
:101380000837BD4680BD00BF180300201C030020A5
:10139000000C014080B588B000AF78600023FB608E
:1013A00007F1100300221A605A609A60DA60002187
:1013B0000120FFF774FE7868FFF736F802460B4607
:1013C00007F10C00074903F0A7FE07F10C031846CC
:1013D000FFF7C1FE6320FFF71BFE00BF2037BD46AD
:1013E00080BD00BFB08C000880B588B000AF7860C9
:1013F0000023FB6007F1100300221A605A609A6014
:10140000DA600A210120FFF74AFE7868FFF70CF83E
:1014100002460B4607F10C00074903F07DFE07F179
:101420000C031846FFF797FE2520FFF7F1FD00BFDC
:101430002037BD4680BD00BFB88C000898B500AF0E
:1014400000F082FC00F02AF900F03EFA00F06CF99E
:1014500000F0EEF900F096F97C4802F0A5F8FFF7ED
:101460003DFEFFF769FD00F0C7FC0346784A1360B4
:10147000774B1A68774B1B68D31AB3F5FA6F7ED394
:10148000734B1B68734A1360FFF792FE0346002BF1
:1014900075D0FFF703FF03461A466F4B1A70FFF72C
:1014A000FDFE03461A466D4B1A70FFF7F7FE034622
:1014B0001A466B4B1A70FFF7F1FE03461A46694B4A
:1014C0001A70FFF7EBFE03461A46674B1A70624B21
:1014D0001B781A46614B1B781344614A12781344F7
:1014E000604A12781344604A1278934247D15C4BA9
:1014F0001B781846FFF7EEFB04465A4B1B7818463C
:10150000FEF780FF4FF00002584BFFF70FF902463D
:101510000B4610461946FFF7D7FA034619462046F0
:10152000FFF728FB03461A46514B1A604A4B1B78BB
:101530001846FFF7CFFB0446484B1B781846FEF7CA
:1015400061FF4FF00002494BFFF7F0F802460B46EF
:1015500010461946FFF7B8FA034619462046FFF72A
:1015600009FB03461A46434B1A60414B1B68184659
:10157000FFF710FF3F4B1B681846FFF735FF3E4B48
:101580001B68002B09D100210020FFF788FD3B4894
:10159000FFF7E1FD384B01221A604FF40051384843
:1015A00000F0EAFE0346002B7FF45DAFFFF760FD1D
:1015B00000210020FFF773FD3248FFF7CCFD2E4BD2
:1015C00000221A6041F2883000F020FC2E48FFF71C
:1015D00013FCFFF7C3FC03461A462C4B1A804FF44A
:1015E000FA7000F013FC2848FFF706FCFFF7B6FC82
:1015F00003461A46254B1A80244B1B88322B0BD9E5
:1016000000210020FFF74BFD2148FFF7A4FD40F625
:10161000B83000F0FBFB26E71C4B1B88C3F1C80366
:101620009AB21A4B1A8000210020FFF738FD174BA1
:101630001B881A461749184803F06EFD1648FFF735
:101640008AFD41F6583000F0E1FB0CE7A8020020CB
:10165000080300200C0300201003002011030020C9
:101660001203002013030020140300200000244074
:10167000200300202403002004030020C08C000865
:10168000000C0140D48C000860020020F002002011
:10169000E88C0008FC8C0008F402002080B590B0B3
:1016A00000AF07F1180328220021184602F0BAFE05
:1016B0003B1D00221A605A609A60DA601A610123A9
:1016C000BB614FF48033FB6100233B620123BB62AB
:1016D00002237B634FF48033BB634FF4E013FB635F
:1016E00007F11803184601F013FB0346002B01D045
:1016F00000F042F90F237B600223BB600023FB60F4
:101700004FF480633B6100237B613B1D022118463F
:1017100001F080FD0346002B01D000F02DF900BF41
:101720004037BD4680BD000080B500AF124B134A64
:101730001A60114B124A5A600F4B00229A600E4BEE
:101740000022DA600C4B4FF480421A610A4B0022EF
:101750005A61094B00229A61074B0022DA61064B5D
:1017600000221A62044800F037FE0346002B01D025
:1017700000F002F900BF80BD0C02002000540040C0
:10178000801A060080B586B000AF07F11003002272
:101790001A605A603B4600221A605A609A60DA600A
:1017A000214B224A1A60204B47225A601E4B0022CE
:1017B0009A601D4B4FF6FF72DA601B4B00221A61D4
:1017C000194B00225A61184B00229A61164801F009
:1017D00035FF0346002B01D000F0CEF800233B611B
:1017E00000237B6107F1100319460F4802F080FDCA
:1017F0000346002B01D000F0BFF800233B6001231B
:101800007B600023BB600023FB603B46002219463F
:10181000054802F077F90346002B01D000F0ACF840
:1018200000BF1837BD4680BD60020020002C01407B
:1018300080B586B000AF07F1080300221A605A6035
:101840009A60DA603B4600221A605A601D4B4FF0E6
:1018500080421A601B4B47225A601A4B00229A6042
:10186000184B4FF6FF72DA60164B00221A61154BC7
:1018700000229A61134801F047FE0346002B01D075
:1018800000F07AF84FF48053BB6007F10803194663
:101890000C4802F0D3F90346002B01D000F06CF89D
:1018A00000233B6000237B603B461946054802F05D
:1018B0001FFD0346002B01D000F05EF800BF183773
:1018C000BD4680BDA802002080B588B000AF07F1FA
:1018D000100300221A605A609A60DA60244B9B69F8
:1018E000234A43F020039361214B9B6903F02003BB
:1018F000FB60FB681E4B9B691D4A43F00803936124
:101900001B4B9B6903F00803BB60BB68184B9B69CA
:10191000174A43F004039361154B9B6903F00403DA
:101920007B607B6800224FF40241124800F03BFDCF
:101930004FF400533B6100237B610023BB6107F13F
:10194000100319460B4800F093FB4FF402433B6130
:1019500001237B610023BB610223FB6107F11003BC
:101960001946044800F084FB00BF2037BD4680BD07
:1019700000100240000C014080B400AF72B600BFFE
:10198000FEE7000080B483B000AF0E4B9B690D4AA8
:1019900043F0010393610B4B9B6903F001037B60F0
:1019A0007B68084BDB69074A43F08053D361054BE2
:1019B000DB6903F080533B603B6800BF0C37BD46DA
:1019C00080BC70470010024080B588B000AF7860DE
:1019D00007F1100300221A605A609A60DA607B688F
:1019E0001B68154A934223D1144B9B69134A43F059
:1019F00008039361114B9B6903F00803FB60FB68CC
:101A0000C0233B6112237B610323FB6107F11003B9
:101A100019460B4800F02CFB084BDB69074A43F4DE
:101A20000013D361054BDB6903F40013BB60BB6893
:101A300000BF2037BD4680BD00540040001002406A
:101A4000000C014080B588B000AF786007F110034A
:101A500000221A605A609A60DA607B681B681A4A32
:101A600093422CD1194B9B69184A43F4006393614C
:101A7000164B9B6903F40063FB60FB68134B9B6987
:101A8000124A43F004039361104B9B6903F0040373
:101A9000BB60BB684FF480733B6100237B61002314
:101AA000BB6107F110031946094800F0E1FA002272
:101AB00000211B2000F0A5FA1B2000F0BEFA00BF99
:101AC0002037BD4680BD00BF002C01400010024001
:101AD0000008014080B485B000AF78607B681B6867
:101AE000B3F1804F0BD1084BDB69074A43F0010388
:101AF000D361054BDB6903F00103FB60FB6800BFAA
:101B00001437BD4680BC70470010024080B400AF5F
:101B1000FEE780B400AFFEE780B400AFFEE780B41C
:101B200000AFFEE780B400AFFEE780B400AF00BFB7
:101B3000BD4680BC704780B400AF00BFBD4680BCCE
:101B4000704780B400AF00BFBD4680BC704780B511
:101B500000AF00F03FF900BF80BD000080B500AFCE
:101B6000024801F0C7FE00BF80BD00BF6002002038
:101B700080B400AF01231846BD4680BC704780B5D5
:101B800082B000AF7860396002F022FC0346162272
:101B90001A604FF0FF3318460837BD4680BD80B548
:101BA00082B000AF78604FF0FF317868FFF7E7FF51
:101BB000FEE780B586B000AFF860B9607A600023B8
:101BC0007B610AE0AFF300800146BB685A1CBA6033
:101BD000CAB21A707B6901337B617A697B689A4269
:101BE000F0DB7B6818461837BD4680BD80B586B0EF
:101BF00000AFF860B9607A6000237B6109E0BB68E0
:101C00005A1CBA601B781846AFF300807B69013319
:101C10007B617A697B689A42F1DB7B6818461837EA
:101C2000BD4680BD80B483B000AF78604FF0FF3315
:101C300018460C37BD4680BC704780B483B000AFF7
:101C4000786039603B684FF400525A6000231846B0
:101C50000C37BD4680BC704780B483B000AF78605D
:101C6000012318460C37BD4680BC704780B485B050
:101C700000AFF860B9607A60002318461437BD469B
:101C800080BC704780B586B000AF7860144A154BB1
:101C9000D31A7B617B693B61134B1B68002B02D11C
:101CA000114B124A1A60104B1A687B6813443A6948
:101CB0009A4207D202F08CFB03460C221A604FF0C6
:101CC000FF3309E0084B1B68FB60074B1A687B6811
:101CD0001344054A1360FB6818461837BD4680BD9B
:101CE00000500020000400002803002040030020D2
:101CF00080B400AF00BFBD4680BC7047FFF7F8FF5F
:101D00000B480C490C4A002302E0D458C450043359
:101D1000C4188C42F9D3094A094C002301E013602E
:101D20000432A242FBD302F059FBFFF787FB704756
:101D300000000020E0010020E4910008E001002004
:101D400040030020FEE7000080B500AF084B1B6891
:101D5000074A43F010031360032000F047F90F20F7
:101D600000F008F8FFF70EFE0023184680BD00BF04
:101D70000020024080B582B000AF7860124B1A6834
:101D8000124B1B7819464FF47A73B3FBF1F3B2FB95
:101D9000F3F3184600F05FF90346002B01D001234E
:101DA0000EE07B680F2B0AD8002279684FF0FF30D5
:101DB00000F027F9064A7B681360002300E0012346
:101DC00018460837BD4680BD0000002008000020EE
:101DD0000400002080B400AF054B1B781A46054B69
:101DE0001B681344034A136000BFBD4680BC7047A4
:101DF000080000202C03002080B400AF024B1B68B9
:101E00001846BD4680BC70472C03002080B584B0C6
:101E100000AF7860FFF7F0FFB8607B68FB60FB689D
:101E2000B3F1FF3F05D00A4B1B781A46FB681344F9
:101E3000FB6000BFFFF7E0FF0246BB68D31AFA68F9
:101E40009A42F7D800BF00BF1037BD4680BD00BF23
:101E50000800002080B485B000AF78607B6803F094
:101E60000703FB600C4BDB68BB60BA684FF6FF03EF
:101E70001340BB60FB681A02BB68134343F0BF63A7
:101E800043F40033BB60044ABB68D36000BF14371F
:101E9000BD4680BC704700BF00ED00E080B400AFDD
:101EA000044BDB681B0A03F007031846BD4680BCE1
:101EB000704700BF00ED00E080B483B000AF034680
:101EC000FB7197F90730002B0BDBFB7903F01F0246
:101ED000064997F907305B09012000FA02F241F840
:101EE000232000BF0C37BD4680BC704700E100E0F6
:101EF00080B483B000AF03463960FB7197F90730B7
:101F0000002B0ADB3B68DAB20C4997F90730120163
:101F1000D2B20B4483F800230AE03B68DAB20849E6
:101F2000FB7903F00F03043B1201D2B20B441A7683
:101F300000BF0C37BD4680BC704700BF00E100E029
:101F400000ED00E080B489B000AFF860B9607A605D
:101F5000FB6803F00703FB61FB69C3F10703042B74
:101F600028BF0423BB61FB690433062B02D9FB693C
:101F7000033B00E000237B614FF0FF32BB6902FAB4
:101F800003F3DA43BB681A407B699A404FF0FF3194
:101F90007B6901FA03F3D9437B680B40134318466E
:101FA0002437BD4680BC704780B582B000AF7860F2
:101FB0007B68013BB3F1807F01D301230FE00A4A24
:101FC0007B68013B53600F214FF0FF30FFF790FF1C
:101FD000054B00229A60044B07221A600023184622
:101FE0000837BD4680BD00BF10E000E080B582B07C
:101FF00000AF78607868FFF72DFF00BF0837BD4657
:1020000080BD80B586B000AF0346B9607A60FB73CF
:1020100000237B61FFF742FF78617A68B9687869CD
:10202000FFF790FF024697F90F3011461846FFF769
:102030005FFF00BF1837BD4680BD80B582B000AFDE
:102040000346FB7197F907301846FFF735FF00BFCD
:102050000837BD4680BD80B582B000AF7860786833
:10206000FFF7A2FF034618460837BD4680BD0000B3
:1020700080B48BB000AF7860396000237B620023AE
:102080003B6269E101227B6A02FA03F3FB613B6870
:102090001B68FA691340BB61BA69FB699A4240F058
:1020A00058813B685B689A4A93425ED0984A934253
:1020B00075D8984A934258D0964A93426FD8964A18
:1020C000934252D0944A934269D8944A93424CD056
:1020D000924A934263D8924A934246D0904A93429E
:1020E0005DD8122B2AD8122B59D801A252F823F00E
:1020F0006B2100084521000857210008992100089C
:102100009F2100089F2100089F2100089F210008AF
:102110009F2100089F2100089F2100089F2100089F
:102120009F2100089F2100089F2100089F2100088F
:102130009F2100084D21000861210008794A93423F
:1021400013D02CE03B68DB683B6229E03B68DB682E
:1021500004333B6224E03B68DB6808333B621FE0EA
:102160003B68DB680C333B621AE03B689B68002BE2
:1021700002D104233B6213E03B689B68012B05D12D
:1021800008233B627B68FA691A6109E008233B6215
:102190007B68FA695A6103E000233B6200E000BFFC
:1021A000BB69FF2B01D87B6801E07B6804337B614E
:1021B000BB69FF2B02D87B6A9B0002E07B6A083B6D
:1021C0009B003B617B691A680F213B6901FA03F3AD
:1021D000DB431A40396A3B6901FA03F31A437B690E
:1021E0001A603B685B6803F08053002B00F0B180FD
:1021F0004D4B9B694C4A43F0010393614A4B9B69E9
:1022000003F00103BB60BB68484A7B6A9B0802334A
:1022100052F82330FB607B6A03F003039B000F221C
:1022200002FA03F3DB43FA681340FB607B68404A21
:10223000934213D07B683F4A93420DD07B683E4A5D
:10224000934207D07B683D4A934201D1032306E0C5
:10225000042304E0022302E0012300E000237A6A61
:1022600002F0030292009340FA681343FB602F4987
:102270007B6A9B080233FA6841F823203B685B685D
:1022800003F48013002B06D02D4B9A682C49BB69B0
:1022900013438B6006E02A4B9A68BB69DB432849ED
:1022A00013408B603B685B6803F40013002B06D07F
:1022B000234BDA682249BB691343CB6006E0204B0D
:1022C000DA68BB69DB431E491340CB603B685B683F
:1022D00003F40033002B06D0194B5A681849BB6928
:1022E00013434B6006E0164B5A68BB69DB43144945
:1022F00013404B603B685B6803F48033002B21D0B4
:102300000F4B1A680E49BB6913430B6021E000BFF5
:1023100000003210000031100000221000002110D7
:1023200000001210000011100010024000000140D7
:1023300000080140000C0140001001400014014061
:10234000000401400B4B1A68BB69DB430949134089
:102350000B607B6A01337B623B681A687B6A22FAF6
:1023600003F3002B7FF48EAE00BF00BF2C37BD46B9
:1023700080BC70470004014080B485B000AF786035
:102380000B467B807B689A687B881340002B02D0C9
:102390000123FB7301E00023FB73FB7B184614371A
:1023A000BD4680BC704780B483B000AF78600B46F8
:1023B0007B8013467B707B78002B03D07A887B6808
:1023C0001A6103E07B881A047B681A6100BF0C372E
:1023D000BD4680BC7047000080B584B000AF786017
:1023E0007B68002B01D101232BE17B6893F83D3002
:1023F000DBB2002B06D17B68002283F83C20786892
:10240000FFF7E2FA7B68242283F83D207B681B6893
:102410001A687B681B6822F001021A607B681B68DF
:102420001A687B681B6842F400421A607B681B686C
:102430001A687B681B6822F400421A6001F032F8C7
:10244000F8607B685B68814A934207D8FB68804AE2
:10245000934294BF01230023DBB206E0FB687D4A70
:10246000934294BF01230023DBB2002B01D0012350
:10247000E7E0FB68784AA2FB03239B0CBB607B6808
:102480001B685B6823F03F017B681B68BA680A43DE
:102490005A607B681B681B6A23F03F017B685B689E
:1024A0006A4A934202D8BB68013309E0BB684FF423
:1024B000967202FB03F3694AA2FB03239B090133D3
:1024C0007A6812680B4313627B681B68DB6923F42C
:1024D0004F4222F0FF027B685B685C498B4219D84F
:1024E000FB68591E7B685B685B00B1FBF3F3591C0A
:1024F00040F6FC730B40002B0AD0FB68591E7B682A
:102500005B685B00B1FBF3F30133C3F30B0351E0F2
:1025100004234FE07B689B68002B11D1FB68581E99
:102520007B6859680B465B000B44B0FBF3F3013347
:10253000C3F30B03002B0CBF01230023DBB212E01B
:10254000FB68581E7B6859680B469B000B4499003A
:102550000B44B0FBF3F30133C3F30B03002B0CBFAD
:1025600001230023DBB2002B01D0012322E07B6892
:102570009B68002B0ED1FB68581E7B6859680B4680
:102580005B000B44B0FBF3F30133C3F30B0343F4E1
:1025900000430FE0FB68581E7B6859680B469B00A0
:1025A0000B4499000B44B0FBF3F30133C3F30B036B
:1025B00043F44043796809681343CB617B681B6827
:1025C0001B6823F0C0017B68DA697B681B6A1A43C9
:1025D0007B681B680A431A607B681B689B6823F44E
:1025E000034323F0FF037A6811697A68D2681143C4
:1025F0007A6812680B4393607B681B68DB6823F082
:10260000FF017B685A697B689B691A437B681B687A
:102610000A43DA607B681B681A687B681B6842F0B3
:1026200001021A607B6800221A647B68202283F80A
:102630003D207B6800221A637B68002283F83E20DD
:10264000002318461037BD4680BD00BFA08601009C
:102650007F841E00FF083D0083DE1B43D34D6210C4
:1026600080B588B002AFF8607A601A460B467B816D
:1026700013463B81FFF7C0FB7861FB6893F83D3060
:10268000DBB2202B40F0E0807B690093192301220C
:102690007049F86800F064F90346002B01D002236A
:1026A000D3E0FB6893F83C30012B01D10223CCE04E
:1026B000FB68012283F83C20FB681B681B6803F061
:1026C0000103012B07D0FB681B681A68FB681B68B5
:1026D00042F001021A60FB681B681A68FB681B68FD
:1026E00022F400621A60FB68212283F83D20FB6817
:1026F000102283F83E20FB6800221A64FB687A6887
:102700005A62FB683A895A85FB685B8D9AB2FB680E
:102710001A85FB68504ADA6279897B693A6AF868F7
:1027200000F09CF80346002B01D001238DE000232C
:102730003B61FB681B685B693B61FB681B689B69CD
:102740003B613B6966E07A69396AF86800F022FA11
:102750000346002B0DD0FB681B6C042B07D1FB68D4
:102760001B681A68FB681B6842F400721A60012338
:102770006BE0FB685B6A1A78FB681B681A61FB6890
:102780005B6A5A1CFB685A62FB685B8D9BB2013B1B
:102790009AB2FB685A85FB681B8D013B9AB2FB68B5
:1027A0001A85FB681B685B6903F00403042B1BD1CB
:1027B000FB681B8D002B17D0FB685B6A1A78FB68DF
:1027C0001B681A61FB685B6A5A1CFB685A62FB68EB
:1027D0005B8D9BB2013B9AB2FB685A85FB681B8DEF
:1027E000013B9AB2FB681A857A69396AF86800F089
:1027F00019FA0346002B0DD0FB681B6C042B07D184
:10280000FB681B681A68FB681B6842F400721A6058
:1028100001231AE0FB681B8D002B94D1FB681B6819
:102820001A68FB681B6842F400721A60FB68202279
:1028300083F83D20FB68002283F83E20FB680022DD
:1028400083F83C20002300E0022318461837BD46D9
:1028500080BD00BF020010000000FFFF80B588B0FF
:1028600002AFF8607A603B600B467B81FB68DB6AF5
:102870007B617B69082B06D07B69012B03D07B69C8
:1028800013F5803F08D1FB681B681A68FB681B685A
:1028900042F480721A600BE0FB681B6B122B07D1AD
:1028A000FB681B681A68FB681B6842F480721A6038
:1028B0003B6800937B6800224FF00111F86800F03C
:1028C0004FF80346002B0DD0FB681B681B6803F410
:1028D0008073B3F5807F03D1FB684FF400721A64F4
:1028E000032335E0FB681B69B3F5804F08D17B8972
:1028F000DBB21A46FB681B6802F0FE021A611BE09D
:102900007B89DB11DBB203F00603DBB263F00F035C
:10291000DAB2FB681B681A613B687A680E49F8688E
:1029200000F098F80346002B01D0012310E07B89CA
:10293000DAB2FB681B681A613B687A680749F86875
:1029400000F088F80346002B01D0012300E00023AB
:1029500018461837BD4680BD08000100020001007E
:1029600080B584B000AFF860B9603B601346FB717E
:1029700048E03B68B3F1FF3F44D0FFF73DFA024621
:10298000BB69D31A3A689A4202D33B68002B39D10B
:10299000BB681B0CDBB2012B0DD1FB681B685B69AC
:1029A000DA43BB6813409BB2002B0CBF012300230A
:1029B000DBB21A460CE0FB681B689B69DA43BB6814
:1029C00013409BB2002B0CBF01230023DBB21A463D
:1029D000FB799A4216D1FB6800221A63FB68202219
:1029E00083F83D20FB68002283F83E20FB681B6CC7
:1029F00043F02002FB681A64FB68002283F83C2045
:102A0000012323E0BB681B0CDBB2012B0DD1FB685B
:102A10001B685B69DA43BB6813409BB2002B0CBF99
:102A200001230023DBB21A460CE0FB681B689B699C
:102A3000DA43BB6813409BB2002B0CBF0123002379
:102A4000DBB21A46FB799A4293D00023184610371E
:102A5000BD4680BD80B584B000AFF860B9607A60D3
:102A60003B6071E0FB681B685B6903F48063B3F54E
:102A7000806F23D1FB681B681A68FB681B6842F4EF
:102A800000721A60FB681B686FF480625A61FB6811
:102A900000221A63FB68202283F83D20FB68002295
:102AA00083F83E20FB681B6C43F00402FB681A6449
:102AB000FB68002283F83C20012367E07B68B3F1C8
:102AC000FF3F41D0FFF798F902463B68D31A7A6876
:102AD0009A4202D37B68002B36D1BB681B0CDBB259
:102AE000012B0CD1FB681B685B69DA43BB681340A0
:102AF0009BB2002B14BF01230023DBB20BE0FB6869
:102B00001B689B69DA43BB6813409BB2002B14BF60
:102B100001230023DBB2002B16D0FB6800221A63CE
:102B2000FB68202283F83D20FB68002283F83E20CA
:102B3000FB681B6C43F02002FB681A64FB680022F0
:102B400083F83C20012321E0BB681B0CDBB2012B86
:102B50000CD1FB681B685B69DA43BB6813409BB20E
:102B6000002B14BF01230023DBB20BE0FB681B68C2
:102B70009B69DA43BB6813409BB2002B14BF01234F
:102B80000023DBB2002B7FF46DAF00231846103713
:102B9000BD4680BD80B584B000AFF860B9607A6092
:102BA00034E0F86800F086F80346002B01D00123DA
:102BB00034E0BB68B3F1FF3F28D0FFF71DF90246B0
:102BC0007B68D31ABA689A4202D3BB68002B1DD126
:102BD000FB681B685B6903F08003802B16D0FB68E1
:102BE00000221A63FB68202283F83D20FB68002244
:102BF00083F83E20FB681B6C43F02002FB681A64DC
:102C0000FB68002283F83C20012307E0FB681B6877
:102C10005B6903F08003802BC3D100231846103773
:102C2000BD4680BD80B584B000AFF860B9607A6001
:102C300034E0F86800F03EF80346002B01D0012391
:102C400034E0BB68B3F1FF3F28D0FFF7D5F8024668
:102C50007B68D31ABA689A4202D3BB68002B1DD195
:102C6000FB681B685B6903F00403042B16D0FB6848
:102C700000221A63FB68202283F83D20FB680022B3
:102C800083F83E20FB681B6C43F02002FB681A644B
:102C9000FB68002283F83C20012307E0FB681B68E7
:102CA0005B6903F00403042BC3D1002318461037DB
:102CB000BD4680BD80B483B000AF78607B681B6880
:102CC0005B6903F48063B3F5806F1BD17B681B687D
:102CD0006FF480625A617B6800221A637B6820224D
:102CE00083F83D207B68002283F83E207B681B6CC4
:102CF00043F004027B681A647B68002283F83C205E
:102D0000012300E0002318460C37BD4680BC704705
:102D100080B586B000AF78607B68002B01D10123BD
:102D200072E27B681B6803F00103002B00F08780D0
:102D3000924B5B6803F00C03042B0CD08F4B5B6849
:102D400003F00C03082B12D18C4B5B6803F4803327
:102D5000B3F5803F0BD1894B1B6803F40033002B84
:102D60006CD07B685B68002B68D101234CE27B68E8
:102D70005B68B3F5803F06D1804B1B687F4A43F404
:102D8000803313602EE07B685B68002B0CD17B4B9B
:102D90001B687A4A23F480331360784B1B68774AA8
:102DA00023F4802313601DE07B685B68B3F5A02FDC
:102DB0000CD1724B1B68714A43F4802313606F4B34
:102DC0001B686E4A43F4803313600BE06B4B1B6847
:102DD0006A4A23F480331360684B1B68674A23F404
:102DE000802313607B685B68002B13D0FFF704F827
:102DF000386108E0FFF700F802463B69D31A642BFC
:102E000001D9032300E25D4B1B6803F40033002B60
:102E1000F0D014E0FEF7F0FF386108E0FEF7ECFFB9
:102E200002463B69D31A642B01D90323ECE1534BCF
:102E30001B6803F40033002BF0D100E000BF7B6877
:102E40001B6803F00203002B63D04C4B5B6803F05C
:102E50000C03002B0BD0494B5B6803F00C03082BD1
:102E60001CD1464B5B6803F48033002B16D1434BD7
:102E70001B6803F00203002B05D07B681B69012B44
:102E800001D00123C0E13D4B1B6823F0F8027B68B1
:102E90005B69DB00394913430B603AE07B681B69CF
:102EA000002B20D0364B01221A60FEF7A5FF3861B7
:102EB00008E0FEF7A1FF02463B69D31A022B01D9B5
:102EC0000323A1E12D4B1B6803F00203002BF0D07C
:102ED0002A4B1B6823F0F8027B685B69DB002749FB
:102EE00013430B6015E0264B00221A60FEF784FFA7
:102EF000386108E0FEF780FF02463B69D31A022BD7
:102F000001D9032380E11D4B1B6803F00203002B52
:102F1000F0D17B681B6803F00803002B3AD07B6874
:102F20009B69002B19D0174B01221A60FEF764FF32
:102F3000386108E0FEF760FF02463B69D31A022BB6
:102F400001D9032360E10D4B5B6A03F00203002B00
:102F5000F0D0012000F0BAFA1CE00A4B00221A60FF
:102F6000FEF74AFF38610FE0FEF746FF02463B6975
:102F7000D31A022B08D9032346E100BF00100240F8
:102F80000000424280044242924B5B6A03F002031B
:102F9000002BE9D17B681B6803F00403002B00F0D1
:102FA000A6800023FB758B4BDB6903F08053002B5D
:102FB0000DD1884BDB69874A43F08053D361854B41
:102FC000DB6903F08053BB60BB680123FB75824B58
:102FD0001B6803F48073002B18D17F4B1B687E4A5B
:102FE00043F480731360FEF707FF386108E0FEF7D3
:102FF00003FF02463B69D31A642B01D9032303E183
:10300000754B1B6803F48073002BF0D07B68DB6882
:10301000012B06D16F4B1B6A6E4A43F0010313620A
:103020002DE07B68DB68002B0CD16A4B1B6A694A78
:1030300023F001031362674B1B6A664A23F0040303
:1030400013621CE07B68DB68052B0CD1614B1B6AAB
:10305000604A43F0040313625E4B1B6A5D4A43F00F
:10306000010313620BE05B4B1B6A5A4A23F0010316
:103070001362584B1B6A574A23F0040313627B68A0
:10308000DB68002B15D0FEF7B7FE38610AE0FEF7CB
:10309000B3FE02463B69D31A41F28832934201D90A
:1030A0000323B1E04B4B1B6A03F00203002BEED06D
:1030B00014E0FEF7A1FE38610AE0FEF79DFE02462D
:1030C0003B69D31A41F28832934201D903239BE032
:1030D000404B1B6A03F00203002BEED1FB7D012B5A
:1030E00005D13C4BDB693B4A23F08053D3617B68BD
:1030F000DB69002B00F08780364B5B6803F00C0324
:10310000082B61D07B68DB69022B46D1334B002250
:103110001A60FEF771FE386108E0FEF76DFE0246A8
:103120003B69D31A022B01D903236DE0294B1B689D
:1031300003F00073002BF0D17B681B6AB3F5803F6E
:1031400008D1244B5B6823F400327B689B682149DB
:1031500013434B601F4B5B6823F474127B68196A3E
:103160007B685B6A0B431B4913434B601B4B01227B
:103170001A60FEF741FE386108E0FEF73DFE0246A8
:103180003B69D31A022B01D903233DE0114B1B6885
:1031900003F00073002BF0D035E0104B00221A60D2
:1031A000FEF72AFE386108E0FEF726FE02463B697C
:1031B000D31A022B01D9032326E0064B1B6803F028
:1031C0000073002BF0D11EE07B68DB69012B07D177
:1031D000012319E0001002400070004060004242EC
:1031E0000B4B5B68FB60FB6803F480327B681B6AF7
:1031F0009A4206D1FB6803F470127B685B6A9A42BC
:1032000001D0012300E0002318461837BD4680BDD9
:103210000010024080B584B000AF786039607B68F0
:10322000002B01D10123D0E06A4B1B6803F0070398
:103230003A689A4210D9674B1B6823F00702654928
:103240003B6813430B60634B1B6803F007033A684A
:103250009A4201D00123B8E07B681B6803F00203A7
:10326000002B20D07B681B6803F00403002B05D0E3
:10327000594B5B68584A43F4E06353607B681B68B2
:1032800003F00803002B05D0534B5B68524A43F40C
:1032900060535360504B5B6823F0F0027B689B687F
:1032A0004D4913434B607B681B6803F00103002BFF
:1032B00040D07B685B68012B07D1474B1B6803F448
:1032C0000033002B15D101237FE07B685B68022B64
:1032D00007D1414B1B6803F00073002B09D1012378
:1032E00073E03D4B1B6803F00203002B01D1012367
:1032F0006BE0394B5B6823F003027B685B683649FF
:1033000013434B60FEF778FDF8600AE0FEF774FDAA
:103310000246FB68D31A41F28832934201D9032353
:1033200053E02D4B5B6803F00C027B685B689B00ED
:103330009A42EBD1274B1B6803F007033A689A4285
:1033400010D2244B1B6823F0070222493B68134329
:103350000B60204B1B6803F007033A689A4201D0C8
:10336000012332E07B681B6803F00403002B08D0C4
:10337000194B5B6823F4E0627B68DB6816491343F2
:103380004B607B681B6803F00803002B09D0124BCD
:103390005B6823F460527B681B69DB000E491343B2
:1033A0004B6000F021F802460B4B5B681B0903F0F1
:1033B0000F030A49CB5C22FA03F3094A1360094B55
:1033C0001B681846FEF7D6FC002318461037BD468A
:1033D00080BD00BF00200240001002400C8D00089C
:1033E000000000200400002080B487B000AF00235C
:1033F000FB600023BB6000237B6100237B60002314
:103400003B611E4B5B68FB60FB6803F00C03042B05
:1034100002D0082B03D027E0194B3B6127E0FB6863
:103420009B0C03F00F03174AD35C7B60FB6803F42B
:103430008033002B10D0114B5B685B0C03F0010351
:10344000114AD35CBB607B680D4A03FB02F2BB6888
:10345000B2FBF3F37B6104E07B680C4A02FB03F3ED
:103460007B617B693B6102E0054B3B6100BF3B69CF
:1034700018461C37BD4680BC704700BF0010024094
:1034800000127A00248D0008348D000800093D00E8
:1034900080B400AF024B1B681846BD4680BC704725
:1034A0000000002080B500AFFFF7F2FF0246054B99
:1034B0005B681B0A03F007030349CB5C22FA03F3A2
:1034C000184680BD001002401C8D000880B485B0F5
:1034D00000AF78600A4B1B680A4AA2FB03235B0A11
:1034E0007A6802FB03F3FB6000BFFB685A1EFA60B8
:1034F000002BF9D100BF00BF1437BD4680BC704718
:1035000000000020D34D621080B582B000AF78601B
:103510007B68002B01D1012341E07B6893F83D30AB
:10352000DBB2002B06D17B68002283F83C20786850
:10353000FEF7D0FA7B68022283F83D207B681A6888
:103540007B6804331946104600F0A8FC7B68012212
:1035500083F846207B68012283F83E207B680122A5
:1035600083F83F207B68012283F840207B6801229A
:1035700083F841207B68012283F842207B68012286
:1035800083F843207B68012283F844207B68012272
:1035900083F845207B68012283F83D2000231846EC
:1035A0000837BD4680BD000080B485B000AF7860AC
:1035B0007B6893F83D30DBB2012B01D0012332E070
:1035C0007B68022283F83D207B681B68184A93427F
:1035D0000ED07B681B68B3F1804F09D07B681B68F5
:1035E000144A934204D07B681B68134A934211D15A
:1035F0007B681B689B6803F00703FB60FB68062B76
:1036000010D07B681B681A687B681B6842F0010257
:103610001A6007E07B681B681A687B681B6842F0C9
:1036200001021A60002318461437BD4680BC70475B
:10363000002C0140000400400008004080B582B02A
:1036400000AF78607B68002B01D1012341E07B68EB
:1036500093F83D30DBB2002B06D17B68002283F863
:103660003C207868FEF7EEF97B68022283F83D2063
:103670007B681A687B6804331946104600F00EFC1C
:103680007B68012283F846207B68012283F83E2074
:103690007B68012283F83F207B68012283F8402069
:1036A0007B68012283F841207B68012283F8422055
:1036B0007B68012283F843207B68012283F8442041
:1036C0007B68012283F845207B68012283F83D2036
:1036D000002318460837BD4680BD000080B584B081
:1036E00000AF786039600023FB733B68002B04D186
:1036F0007B6893F83E30DBB213E03B68042B04D1C7
:103700007B6893F83F30DBB20BE03B68082B04D1B9
:103710007B6893F84030DBB203E07B6893F841307C
:10372000DBB2BB733B68002B04D17B6893F842305B
:10373000DBB213E03B68042B04D17B6893F8433081
:10374000DBB20BE03B68082B04D17B6893F8443074
:10375000DBB203E07B6893F84530DBB27B73BB7B65
:10376000012B02D17B7B012B01D00123B8E03B6808
:10377000002B04D17B68022283F83E2013E03B68D3
:10378000042B04D17B68022283F83F200BE03B68C6
:10379000082B04D17B68022283F8402003E07B6879
:1037A000022283F841203B68002B04D17B6802226F
:1037B00083F8422013E03B68042B04D17B6802228B
:1037C00083F843200BE03B68082B04D17B6802227E
:1037D00083F8442003E07B68022283F845203B689D
:1037E0000C2B41D801A252F823F000BF2138000869
:1037F000693800086938000869380008333800085B
:103800006938000869380008693800084538000838
:103810006938000869380008693800085738000816
:103820007B681B68DA687B681B6842F00202DA601A
:103830001DE07B681B68DA687B681B6842F0040245
:10384000DA6014E07B681B68DA687B681B6842F00A
:103850000802DA600BE07B681B68DA687B681B682B
:1038600042F01002DA6002E00123FB7300BFFB7B31
:10387000002B34D17B681B6801223968184600F0A0
:1038800012FD7B681B68184A93420ED07B681B6848
:10389000B3F1804F09D07B681B68144A934204D06F
:1038A0007B681B68124A934211D17B681B689B6836
:1038B00003F00703BB60BB68062B10D07B681B6856
:1038C0001A687B681B6842F001021A6007E07B6897
:1038D0001B681A687B681B6842F001021A60FB7B58
:1038E00018461037BD4680BD002C01400004004042
:1038F0000008004080B582B000AF78607B681B682C
:103900001B6903F00203022B22D17B681B68DB6872
:1039100003F00203022B1BD17B681B686FF00202CD
:103920001A617B6801221A777B681B689B6903F028
:103930000303002B03D07868FDF75EFA05E0786892
:1039400000F091FA786800F097FA7B6800221A7705
:103950007B681B681B6903F00403042B22D17B687E
:103960001B68DB6803F00403042B1BD17B681B6816
:103970006FF004021A617B6802221A777B681B6869
:103980009B6903F44073002B03D07868FDF734FA89
:1039900005E0786800F067FA786800F06DFA7B68F7
:1039A00000221A777B681B681B6903F00803082B49
:1039B00022D17B681B68DB6803F00803082B1BD14E
:1039C0007B681B686FF008021A617B6804221A7713
:1039D0007B681B68DB6903F00303002B03D0786866
:1039E000FDF70AFA05E0786800F03DFA786800F023
:1039F00043FA7B6800221A777B681B681B6903F017
:103A00001003102B22D17B681B68DB6803F01003C6
:103A1000102B1BD17B681B686FF010021A617B684A
:103A200008221A777B681B68DB6903F44073002B5C
:103A300003D07868FDF7E0F905E0786800F013FA44
:103A4000786800F019FA7B6800221A777B681B6897
:103A50001B6903F00103012B0ED17B681B68DB6837
:103A600003F00103012B07D17B681B686FF0010293
:103A70001A61786800F0EEF97B681B681B6903F037
:103A80008003802B0ED17B681B68DB6803F080030A
:103A9000802B07D17B681B686FF080021A61786801
:103AA00000F08DFC7B681B681B6903F04003402B12
:103AB0000ED17B681B68DB6803F04003402B07D105
:103AC0007B681B686FF040021A61786800F0DDF9CE
:103AD0007B681B681B6903F02003202B0ED17B68D9
:103AE0001B68DB6803F02003202B07D17B681B6871
:103AF0006FF020021A61786800F058FC00BF0837A8
:103B0000BD4680BD80B586B000AFF860B9607A6010
:103B10000023FB75FB6893F83C30012B01D1022395
:103B200088E0FB68012283F83C207B68002B1BD1D6
:103B3000FB681868BB681968BB685A68BB68DB68B3
:103B400000F00EFAFB681B689A69FB681B6822F09C
:103B50000C029A61FB681B689969BB689A68FB68EC
:103B60001B680A439A6160E07B68042B1CD1FB68E8
:103B70001868BB681968BB685A68BB68DB6800F0E6
:103B800077FAFB681B689A69FB681B6822F440623D
:103B90009A61FB681B689969BB689B681A02FB689D
:103BA0001B680A439A6140E07B68082B1BD1FB68C5
:103BB0001868BB681968BB685A68BB68DB6800F0A6
:103BC000C2FAFB681B68DA69FB681B6822F00C020A
:103BD000DA61FB681B68D969BB689A68FB681B6877
:103BE0000A43DA6121E07B680C2B1CD1FB68186862
:103BF000BB681968BB685A68BB68DB6800F0DEFA0E
:103C0000FB681B68DA69FB681B6822F44062DA61B2
:103C1000FB681B68D969BB689B681A02FB681B6854
:103C20000A43DA6101E00123FB75FB68002283F897
:103C30003C20FB7D18461837BD4680BD80B584B05A
:103C400000AF786039600023FB737B6893F83C30E9
:103C5000012B01D10223B4E07B68012283F83C20D0
:103C60007B68022283F83D207B681B689B68BB60F1
:103C7000BB6823F07703BB60BB6823F47F43BB6062
:103C80007B681B68BA689A603B681B68B3F5005F85
:103C90003ED0B3F5005F00F28780B3F5805F00F09F
:103CA0008680B3F5805F7FD8702B1AD0702B7BD8BD
:103CB000602B50D0602B77D8502B3CD0502B73D832
:103CC000402B58D0402B6FD8302B64D0302B6BD882
:103CD000202B60D0202B67D8002B5CD0102B5AD023
:103CE00062E07B6818683B6899683B685A683B6883
:103CF000DB6800F0B9FA7B681B689B68BB60BB6837
:103D000043F07703BB607B681B68BA689A604FE03A
:103D10007B6818683B6899683B685A683B68DB6851
:103D200000F0A2FA7B681B689A687B681B6842F403
:103D300080429A603CE07B6818683B6859683B6841
:103D4000DB681A4600F066F97B681B68502118464C
:103D500000F070FA2CE07B6818683B6859683B6893
:103D6000DB681A4600F0C0F97B681B6860211846C2
:103D700000F060FA1CE07B6818683B6859683B6893
:103D8000DB681A4600F046F97B681B68402118463C
:103D900000F050FA0CE07B681A683B681B68194613
:103DA000104600F047FA03E00123FB7300E000BF78
:103DB0007B68012283F83D207B68002283F83C2049
:103DC000FB7B18461037BD4680BD000080B485B02F
:103DD00000AF786039600023FB603B680C2B31D862
:103DE00001A252F823F000BF1D3E0008453E000826
:103DF000453E0008453E0008273E0008453E0008B5
:103E0000453E0008453E0008313E0008453E00089A
:103E1000453E0008453E00083B3E00087B681B68A5
:103E20005B6BFB600FE07B681B689B6BFB600AE0D1
:103E30007B681B68DB6BFB6005E07B681B681B6CA9
:103E4000FB6000E000BFFB6818461437BD4680BC2D
:103E5000704700BF80B483B000AF786000BF0C37FC
:103E6000BD4680BC704780B483B000AF786000BFAF
:103E70000C37BD4680BC704780B483B000AF78601B
:103E800000BF0C37BD4680BC704780B483B000AF24
:103E9000786000BF0C37BD4680BC704780B485B0E9
:103EA00000AF786039607B681B68FB607B68294ADB
:103EB00093420BD07B68B3F1804F07D07B68264AD2
:103EC000934203D07B68254A934208D1FB6823F0D4
:103ED0007003FB603B685B68FA681343FB607B68B8
:103EE0001C4A93420BD07B68B3F1804F07D07B68AC
:103EF000194A934203D07B68184A934208D1FB6861
:103F000023F44073FB603B68DB68FA681343FB6093
:103F1000FB6823F080023B685B691343FB607B68AE
:103F2000FA681A603B689A687B68DA623B681A68CC
:103F30007B689A627B68074A934203D13B681A699F
:103F40007B681A637B6801225A6100BF1437BD4643
:103F500080BC7047002C0140000400400008004075
:103F600080B487B000AFF860B9607A603B60FB68EE
:103F70001B6A3B61FB681B6A23F00102FB681A6243
:103F8000FB689B697B61FB681F4A93420BD0FB680F
:103F9000B3F1804F07D0FB681C4A934203D0FB6803
:103FA0001B4A934201D1012300E00023002B08D0DB
:103FB0007B6923F003037B617A697B6813437B6130
:103FC00003E07B6943F001037B617B6923F0F0032D
:103FD0007B613B681B01DBB27A6913437B613B6900
:103FE00023F00A033B61BB6803F00A033A691343F9
:103FF0003B61FB687A699A61FB683A691A6200BFA3
:104000001C37BD4680BC7047002C014000040040B6
:104010000008004080B487B000AFF860B9607A60F3
:10402000FB681B6A7B61FB681B6A23F00102FB686B
:104030001A62FB689B693B613B6923F0F0033B61BB
:104040007B681B013A6913433B617B6923F00A03D8
:104050007B617A69BB6813437B61FB683A699A614B
:10406000FB687A691A6200BF1C37BD4680BC704786
:1040700080B487B000AFF860B9607A603B60FB68DD
:104080001B6A7B61FB681B6A23F01002FB681A62E3
:10409000FB689B693B613B6923F440733B617B6830
:1040A0001B023A6913433B613B6923F470433B6154
:1040B0003B681B039BB23A6913433B617B6923F066
:1040C000A0037B61BB681B0103F0A0037A69134363
:1040D0007B61FB683A699A61FB687A691A6200BF82
:1040E0001C37BD4680BC704780B487B000AFF86015
:1040F000B9607A60FB681B6A7B61FB681B6A23F00E
:104100001002FB681A62FB689B693B613B6923F400
:1041100070433B617B681B033A6913433B617B69D6
:1041200023F0A0037B61BB681B017A6913437B61A9
:10413000FB683A699A61FB687A691A6200BF1C37AA
:10414000BD4680BC704780B487B000AFF860B960EE
:104150007A603B60FB681B6A7B61FB681B6A23F427
:104160008072FB681A62FB68DB693B613B6923F084
:1041700003033B613A697B6813433B613B6923F06E
:10418000F0033B613B681B01DBB23A6913433B61BF
:104190007B6923F400737B61BB681B0203F400732B
:1041A0007A6913437B61FB683A69DA61FB687A6973
:1041B0001A6200BF1C37BD4680BC704780B487B010
:1041C00000AFF860B9607A603B60FB681B6A7B6196
:1041D000FB681B6A23F48052FB681A62FB68DB6988
:1041E0003B613B6923F440733B617B681B023A6986
:1041F00013433B613B6923F470433B613B681B0302
:104200009BB23A6913433B617B6923F400537B61A2
:10421000BB681B0303F400537A6913437B61FB689B
:104220003A69DA61FB687A691A6200BF1C37BD46D9
:1042300080BC704780B485B000AF786039607B681F
:104240009B68FB60FB6823F07003FB603A68FB68C7
:10425000134343F00703FB607B68FA689A6000BF72
:104260001437BD4680BC704780B487B000AFF8609B
:10427000B9607A603B60FB689B687B617B6923F473
:104280007F437B613B681A027B681A43BB68134318
:104290007A6913437B61FB687A699A6000BF1C37B7
:1042A000BD4680BC704780B487B000AFF860B9608D
:1042B0007A60BB6803F01F03012202FA03F37B61FB
:1042C000FB681A6A7B69DB431A40FB681A62FB6869
:1042D0001A6ABB6803F01F03796801FA03F31A43F3
:1042E000FB681A6200BF1C37BD4680BC70470000E7
:1042F00080B485B000AF786039607B6893F83C305B
:10430000012B01D1022346E07B68012283F83C2087
:104310007B68022283F83D207B681B685B68FB603A
:104320007B681B689B68BB60FB6823F07003FB60C5
:104330003B681B68FA681343FB607B681B68FA687C
:104340005A607B681B68164A93420ED07B681B68D4
:10435000B3F1804F09D07B681B68124A934204D0A6
:104360007B681B68104A93420CD1BB6823F0800322
:10437000BB603B685B68BA681343BB607B681B68C3
:10438000BA689A607B68012283F83D207B6800222E
:1043900083F83C20002318461437BD4680BC704784
:1043A000002C0140000400400008004080B483B0AD
:1043B00000AF786000BF0C37BD4680BC704780B44A
:1043C00083B000AF786000BF0C37BD4680BC70473B
:1043D000014B1868704700BF0C00002070B5002624
:1043E0000C4D0D4C641BA410A64209D104F052FCE4
:1043F00000260A4D0A4C641BA410A64205D170BDCC
:1044000055F8043B98470136EEE755F8043B9847CA
:104410000136F2E7DC910008DC910008DC9100082D
:10442000E091000803460244934200D1704703F82C
:10443000011BF9E7002B2DE9F0471F46BBBF03F135
:1044400000431F4600232D2388B01446129A109D66
:104450001370149BDDF84CA023F02008B8F1460F30
:1044600005D0B8F1450F00D10135022300E0032348
:1044700007AA049206AACDE902A2CDE90035224698
:104480003B4601F085FDB8F1470F064602D1119B6E
:10449000DB0722D5B8F1460F06EB050910D13378BA
:1044A000302B0AD10022002320463946FCF77CFA43
:1044B00018B9C5F10105CAF80050DAF8003099447E
:1044C0000022002320463946FCF76EFA08B1CDF8E9
:1044D0001C903022079B4B4507D33046079B159A0B
:1044E0009B1B136008B0BDE8F087591C07911A7038
:1044F000F0E70346F7B5002903F8022BB6BF2D22DB
:104500002B224942092942702BDD0DF10704A446F4
:104510000A2791FBF7F60A46A64607FB1615632AFB
:1045200005F13005314604F1FF340EF8015CF0DC92
:104530003031AEF1020504F8011C2946441C6145E6
:104540000AD30DF10902A2EB0E02654588BF0022D5
:104550001344181A03B0F0BD11F8012B04F8012F11
:10456000EDE7302330318370C170031DF1E70000A7
:104570002DE9F04F91B00C46DDF8688016461F46D5
:10458000054602F059FE036818460993FBF7E0FD63
:1045900000230E93D8F800300A90073323F0070366
:1045A00003F1080294F81890D4F800B0C8F800207D
:1045B000D3E90023C4E91223D4E9128A2AF0004384
:1045C0000B934FF0FF3240469C4B0B99FCF71EFAC1
:1045D00070BB4FF0FF324046984B0B99FCF7F8F94F
:1045E00030BB0022002340465146FCF7E7F910B1EA
:1045F0002D2384F84330924B9248B9F1470F94BF72
:104600009846804603234FF0000A23612BF00403F1
:10461000236033462146284600970FAA00F0D4F9BC
:10462000013040F090804FF0FF3011B0BDE8F08FC6
:104630004246534640465146FCF7E8F948B1BAF1C4
:10464000000FB8BF2D238048B8BF84F843307F4B9C
:10465000D3E7636809F0DF015A1C42D10623636087
:10466000002206920EAACDE904920DAA4BF48063B3
:1046700003920DF13302CDE90132236063684246B3
:104680000093284653460B91FFF7D4FE0B998046C2
:1046900047290D9908D1C81C02DB6368994240DDA7
:1046A000A9F102095FFA89F9B9F1650F1FD84A46E5
:1046B000013904F150000D91FFF71BFF0E9A82465D
:1046C0001318012A236102DC2268D20701D50133C5
:1046D00023619DF83330002B9BD02D2384F8433089
:1046E00097E74729BCD1002BBAD10123B7E7B9F12D
:1046F000660F18D1002963680BDD216113B92268A8
:10470000D00702D501330B4423614FF0000AA165A5
:10471000DFE713B92268D20701D50233F4E701239A
:10472000F2E74FF067090E9B994205DB2368216190
:10473000D807EAD54B1CE7E70029CCBF0122C1F11D
:1047400002021344E0E723685A0507D4236942466E
:1047500031462846B84701302BD164E7B9F1650FDF
:1047600040F2DD80D4E9120100220023FCF71CF99D
:10477000002833D0012331462846354AB847013056
:104780003FF451AFDDE90D239A4202DB2368D807DD
:104790000FD5DDE9092331462846B84701303FF4FB
:1047A00042AF4FF0000804F11A090E9B013B43454C
:1047B00009DC23689B0700F10281E0680F9B9842A7
:1047C000B8BF184631E701234A4631462846B84764
:1047D00001303FF428AF08F10108E6E70D9B002BFC
:1047E00038DC012331462846194AB84701303FF4E6
:1047F0001AAFDDE90D23134302D12368D907D8D5B9
:10480000DDE9092331462846B84701303FF40BAFB4
:104810004FF0000904F11A0A0D9B5B424B4501DC85
:104820000E9B94E70123524631462846B847013093
:104830003FF4F9AE09F10109EEE700BFFFFFEF7F9A
:104840003C8D0008408D0008488D0008448D00080C
:104850004C8D00080E9AA36D9A42A8BF1A46002AF2
:10486000914637DC4FF0000B29EAE97904F11A028E
:10487000D4F858A0AAEB09035B4533DCDDE90D232E
:104880009A423BDB2368DA0738D40E9B0D99A3EBE1
:104890000A02A3EB01099145A8BF9146B9F1000FA7
:1048A00034DC4FF0000829EAE97904F11A0ADDE95D
:1048B0000D239B1AA3EB090343457FF77AAF01232E
:1048C000524631462846B84701303FF4ACAE08F1B5
:1048D0000108ECE71346314642462846B847013006
:1048E000C0D1A0E60123314628460B92B8470130DB
:1048F0003FF499AE0B9A0BF1010BB9E73146DDE9B4
:1049000009232846B8470130BFD18CE64B463146D3
:10491000284608EB0A02B8470130C2D183E60E9A56
:10492000012A01DCDB0737D5012342463146284600
:10493000B84701303FF477AEDDE909233146284618
:10494000B84701303FF46FAED4E9120100220023D2
:10495000FCF72AF8D8B90E9B08F10102013B314659
:104960002846B84701300ED15DE601234A4631465C
:104970002846B84701303FF456AE08F101080E9BB7
:10498000013B4345F1DC534604F15002E0E64FF0B1
:10499000000804F11A09F2E701234246DFE7012388
:1049A0004A4631462846B84701303FF43CAE08F14C
:1049B0000108E3680F995B1A4345F0DCFDE64FF010
:1049C000000804F11909F4E72DE9F0471646994665
:1049D0008A680B6907469342B8BF1346336091F863
:1049E00043200C46DDF820800AB101333360236890
:1049F000990642BF336802333360256815F0060517
:104A000006D104F1190AE36832689B1AAB4228DC2C
:104A100094F84320131E226818BF012392062DD458
:104A20004946384604F14302C047013020D023688C
:104A3000E56803F00603042B18BF002532684FF029
:104A40000006A36808BFAD1A226908BF25EAE5750C
:104A50009342C4BF9B1AED181A34B5421AD10020F4
:104A600008E00123524649463846C047013003D189
:104A70004FF0FF30BDE8F0870135C4E73020E11882
:104A800081F843005A1C94F845102244023382F8FE
:104A90004310C5E70123224649463846C047013046
:104AA000E6D00136D9E700002DE9FF470F7E914699
:104AB000782F80460C469A460C9D01F1430207D898
:104AC000622F0AD8002F00F0D980582F00F0A48060
:104AD00004F1420584F842703AE0A7F16303152B14
:104AE000F6D801A151F823F0414B0008554B0008BE
:104AF000D14A0008D14A0008D14A0008D14A00082A
:104B0000554B0008D14A0008D14A0008D14A000894
:104B1000D14A0008634C0008854B0008454C00084A
:104B2000D14A0008D14A0008854C0008D14A000843
:104B3000854B0008D14A0008D14A00084D4C0008B6
:104B40002B681A1D1B682A6004F1420584F8423064
:104B50000123A4E020682968060601F104030AD5B0
:104B60000E682B60002E03DA2D23764284F8433042
:104B70000A235E4819E00E6810F0400F2B6018BF42
:104B800036B2EFE72B682068191D2960010601D5B0
:104B90001E6802E04606FBD51E886F2F0CBF082357
:104BA0000A235248002184F843106568002DA8BFED
:104BB0002168A560A4BF21F0040121600EB9002D79
:104BC0004DD01546B6FBF3F103FB1167C75D05F841
:104BD000017D3746BB420E46F4D9082B0BD1236822
:104BE000DE0708D5236961689942DEBF302305F8E6
:104BF000013C05F1FF35521B22614B4621464046E0
:104C0000CDF800A003AAFFF7DFFE01304CD14FF032
:104C1000FF3004B0BDE8F087344881F8457029685A
:104C2000236851F8046B29601D0614D5DF0744BFC3
:104C300043F0200323601EB9236823F02003236080
:104C40001023AFE7236843F020032360782328482C
:104C500084F84530E3E7590648BFB6B2E6E71546A3
:104C6000BBE72B682668181D6169286035061B683C
:104C700001D5196002E07006FBD5198000231546A6
:104C80002361BAE72B6800211A1D2A601D6862683B
:104C9000284602F0EFFA08B1401B606063682361A8
:104CA000002384F84330A8E72A4649464046236952
:104CB000D0470130ABD023689B0713D4E068039B37
:104CC0009842B8BF1846A4E70123324649464046F9
:104CD000D04701309BD00135E36803995B1AAB42A2
:104CE000F2DCEBE7002504F11906F5E74E8D00082C
:104CF0005F8D00082DE9F04F87B003938B6817464E
:104D00005A1EB2F5AE7F85BF6FF4AE755B190023F6
:104D1000029388BF40F25D138B464FF000058CBFB5
:104D20008B6002930B68804643F4F0634BF81C3BA6
:104D30000C465E46AA46A946CDE904550195A268EF
:104D400052B13B681B784E2B64D8402B3CD8A3F162
:104D50002B01C8B20E283AD9B9F1000F03D023684D
:104D600023F4807323600AF1FF3ABAF1010F00F2D5
:104D700013815E4500F205810125284607B0BDE894
:104D8000F08FA3F161020D2AE6D801A151F822F0BB
:104D9000CF4E0008594D0008594D0008594D0008E4
:104DA0002F4F0008074F0008594D0008594D0008C3
:104DB000DD4E0008594D0008594D0008594D0008B6
:104DC000594D0008954E0008A3F14102DBE70E297A
:104DD000C2D801A050F821F0874E0008594D0008B4
:104DE000874E00081B4F0008594D0008354E00083B
:104DF000714E0008714E0008714E0008714E000897
:104E0000714E0008714E0008714E0008714E000886
:104E1000714E00086E2B09D8602BB2D8542B77D076
:104E2000592B99D1072D97D1082529E0742B6FD0E4
:104E3000792BF6E72168C8051AD5029B21F080017D
:104E4000216009F101091BB1013B01320293A2600B
:104E5000A368013BA3602369013323617B68013BA5
:104E6000002B7B6040F384803B6801333B6066E746
:104E70001AEB050F7FF470AF226822F4C072226033
:104E800006F8013BE4E7226810067FF565AF22F0E3
:104E90008002F4E7BAF1000F0ED1B9F1000F0ED184
:104EA000226802F4E061B1F5E06F08D122F4F0620B
:104EB0004FF0010A2260E3E7BAF1020F55D0012D4D
:104EC00002D0042D7FF448AF0135EDB2D8E7BAF136
:104ED000010F7FF441AF4FF0020AD1E77DB9B9F17C
:104EE000000F7FF43CAF226802F4E061B1F5E06F9F
:104EF0007FF439AF22F4F06201252260C0E7032D70
:104F0000E2D0052DDEE7022D7FF426AF0325B7E7BB
:104F1000062D7FF421AF0725B2E7226891057FF5C2
:104F20001BAF22F420722260CDF80490A8E722681B
:104F300002F4A061B1F5806F06D050057FF50CAF8B
:104F4000B9F1000F3FF40FAF910558BF019922F45A
:104F5000F06258BFA9EB010142F4C0724FF00009A2
:104F600058BFCDE9041622608AE74FF0030A87E7AD
:104F700039464046D4F88031984700283FF4DFAEE8
:104F8000EAE6D4F87C313A46404616F8011D9847C7
:104F90002369013B2361ECE66B1E062B25D8022D0D
:104FA00036D85E457FF6E8AED4F87C313A464046C6
:104FB00016F8011D98472369013B2361F1E7029828
:104FC000D4F87C3110F8011D3A46029040469847CB
:104FD0002369013B23610AF1FF3A5FFA8AFABAF1C9
:104FE000020FECD1033DEDB2761B2368DA052FD515
:104FF0005B0510D55E457FF6BFAED4F87C313A46EE
:10500000404616F8011D98472369013B2361F1E7EB
:10501000AA460296DFE716F8011C2369652903F109
:10502000FF3306F1FF3523610CD045290AD0D4F8AF
:105030007C313A4640469847236916F8021C013BEA
:10504000B51E23613A464046D4F87C3198472E4637
:10505000256815F0100555D13570236803F4C06339
:10506000B3F5806F1BD1019B4B45A3EB090223D104
:1050700000225946404600F07BFE2268039B12F056
:10508000020F06460F461B6821D01A1D03990A60BD
:105090001B68C3E90067E3680133E3606DE6049BC6
:1050A000002BE5D005990A232A464046013100F03D
:1050B000E1FE049B059EC21A04F26F139E4228BFB4
:1050C00004F5B7763046104900F026F8D0E712F024
:1050D000040F03F10402D9D1DDF80CC0CCF8002094
:1050E000D3F8008002460B46FBF790FC28B1074836
:1050F00000F00EF8C8F80000CDE730463946FBF75F
:10510000E3FCF7E7002538E6708D00087891000889
:10511000004870470000C07F0EB46FF0004100B53A
:105120009CB01DAB02900690079104910848094974
:1051300053F8042B0591006802A9019302F0BAFE0E
:105140000022029B1A701CB05DF804EB03B070479C
:105150000C0000200802FFFF2DE9F0410F469046A9
:1051600002F014FC04460D46B8F1000F11D0C7F34D
:105170000A53C3F16B03002B0BDD00241B0503F165
:105180007F5505F5401522462B46FBF7A5F9044649
:105190000D4620462946BDE8F081000000000000D1
:1051A0002DE9F04F9B4600239FB01A939E4B8246F9
:1051B0001F680E4638461592FAF7CAFF4FF00008EE
:1051C00004464FF000091996199B1A782B2A4CD0E7
:1051D0003AD80D2A33D8082A33D8002A3DD00023E4
:1051E0000A93199D2B78302B40F0AA806B7803F03E
:1051F000DF03582B66D10A9B504601931AAB0093EC
:105200008A4ACDF808B01BAB19A901F017FD10F0C0
:105210000706044605D0062E29D10023013519952D
:105220000A93159B002B40F08A850A9BD3B1424616
:1052300009F10043104619461FB0BDE8F08F202A3F
:10524000CDD101331993BFE72D2AC8D101220A928B
:105250005A1C19925B78002BC3D1159B1996002B11
:1052600040F06B8542464B46E4E70022EFE71A9A8E
:105270003AB135211CA802F08DFC50461A9902F073
:1052800055F8013E042E06D8DFE806F00A0314178D
:105290000A00DDE91C892107C3D549F00049C0E7B0
:1052A0001B9ADDE91C8302F2334223F4801343EAA4
:1052B0000259F0E7DFF87891EDE76FF000494FF021
:1052C000FF38E8E7199B5A1C19925B78302BF9D00C
:1052D000002BA6D001230793199B0A2208930023D1
:1052E0009B46CDE9053319980578A5F13003D9B26D
:1052F000092927D92246394602F0F2FE002833D088
:1053000000202A465C4603460490652A01D0452ABF
:1053100014D11CB9079A02439FD00024199E721C15
:10532000199272782B2A79D02D2A00F083800027D9
:10533000A2F13001092940F28380199600259FE0EF
:105340000023C8E7BBF1080FD5BF0699059902FBFA
:10535000013302FB013300F10100D4BF0693059332
:105360000BF1010B1990BEE7199B1A1919921A5DDE
:10537000BBF1000F36D05C460490A2F13003092B3C
:1053800012D90123C1E7199B01305A1C19925A788E
:10539000302AF8D0A2F13103082B00F2D584049012
:1053A00000200446199B0893303A00F1010313D002
:1053B000049905191944049123460A21AB4213D1DB
:1053C0002318082B04F1010404441BDC0A2306996A
:1053D00003FB012306930023199A1846511C1991C7
:1053E0005278CAE75846D3E7082B04DC069F4F43A0
:1053F00006970133E2E75F1C102FDEBF059F4F4386
:105400000597F6E7102CDFBF0A23059903FB01235C
:105410000593E0E70023049301237BE70027B21CF8
:105420001992B27884E700BFC08F0008788D000819
:105430000000F07F0127F2E7199A511C1991527868
:10544000302AF9D0A2F1310108293FF677AF4FF0A9
:105450000A0EA2F1300C199A0992199A511C19914D
:105460005278A2F13005092D35D9099D491B08292B
:1054700044F61F6502DC6545A8BF654607B16D426D
:10548000002C4CD1079901437FF4CBAE002B7FF465
:10549000E4AE692A26D023DC492A23D04E2A7FF4A1
:1054A000DCAE9D4919A801F017FE00283FF4D5AEE7
:1054B000199B1B78282B2CD198491CAA19A801F0FC
:1054C0001FFE052825D11D9BDDF8708043F0FF49A4
:1054D00049F4E009A5E60EFB0C2CACF1300CBCE75E
:1054E0006E2ADCE78E4919A801F0F6FD00283FF48A
:1054F000B4AE199B8B49013B19A8199301F0ECFD3F
:1055000010B9199B013319934FF00008DFF8189276
:1055100087E6864802F0CEFD8046894681E6049BF8
:10552000BBF1000F08BFA346EB1A102C06982646C5
:105530000793A8BF1026FAF755FF092C8046894625
:1055400013DD7B4B03EBC60353E91223FAF7C4FFC9
:10555000804605988946FAF745FF02460B464046C5
:105560004946FAF703FE804689460F2C36DC079B36
:10557000002B3FF456AE22DD162B09DC6C49424667
:1055800001EBC3014B46D1E90001FAF7A5FFC3E7E0
:10559000079AC4F12503934220DB654DC4F10F0443
:1055A00005EBC4014246D1E900014B46FAF794FFEE
:1055B000079B1C1B05EBC405D5E90023E5E7079B0A
:1055C00016330BDB049B40465D1B594B494603EBEE
:1055D000C505D5E90023FBF7A9F89DE7079BA61BA6
:1055E0001E44002E74DD16F00F030AD050494246C7
:1055F00001EBC301D1E900014B46FAF76DFF80468C
:10560000894636F00F0652D0B6F59A7F27DD4FF067
:10561000000BCDF810B0CDF820B0CDF818B0222393
:105620004FF00008DFF80091CAF80030089B002B0B
:105630003FF4F7AD50461A9901F078FE50460699AE
:1056400001F074FE5046049901F070FE504608992E
:1056500001F06CFE5946504601F068FEE1E5354B1D
:1056600040460593002349461F463611012E21DC92
:105670000BB1804689462F4BA9F1547903EBC7073C
:105680004246D7E900014B46FAF726FF264B0A4669
:105690000B40294980468B42B9D8A1F580118B4235
:1056A00086BF4FF0FF38DFF8949002F15479002361
:1056B00005937FE0F20705D5059BD3E90023FAF7B0
:1056C0000BFF0123059A0137083276100592CDE7CA
:1056D000EDD0764216F00F020AD0154B404603EB90
:1056E000C2034946D3E90023FBF720F880468946E8
:1056F0003611DCD01F2E23DD4FF0000BCDF810B09B
:10570000CDF820B0CDF818B022234FF000084FF0AC
:105710000009CAF8003089E7498D00088C8D00081F
:10572000418D0008CC8E00080000F07F78910008C1
:1057300058900008309000080000A07CFFFFEF7F29
:1057400016F0100318BF6A2340460593494600230C
:10575000B04FF20704D5D7E90023FAF7BDFE0123C5
:10576000761007F10807F4D10BB180468946059BF6
:10577000C3B1C9F30A52C2F16B03002B494611DDD4
:105780001F2B40F32781342BD8BF4FF0FF334FF04E
:105790000008CFBF4FF05C79C2F14B0203FA02F26E
:1057A00002EA01090022002340464946FBF7FCF8C3
:1057B0000028A1D1069B5A460093504623460899DB
:1057C00001F01CFE089000283FF421AF049B4FF02D
:1057D000000B5D1B079BCDF810B0002BB4BF2B4610
:1057E00000230E93079B23EAE3731493089B504610
:1057F000596801F05BFD069000283FF410AF089B4C
:105800000C301A6903F10C010232920001F040FDE4
:105810001CAB01931BAB009342464B465046CDE96F
:105820000C8902F02DF91A9000283FF4F8AE0121FE
:10583000504601F07BFE0346049000283FF4EFAE93
:105840001B9D1C9A002DABBF0E9B149BEE185C1B7E
:10585000059BA8BF149CA5EB030515446E4B05F1F1
:10586000FF35B8BF0E9E9D42C2F1360280F2C48061
:105870005B1B1F2B4FF00107A2EB030200F3B1806B
:10588000002507FA03F30F93B718059BBE42144493
:105890001C443346A8BF3B46A342A8BF2346002B67
:1058A000C2BFFF1AE41AF61A0E9B002B17DD1A4628
:1058B0005046049901F0F8FE049000283FF4AFAE82
:1058C00001461A9A504601F047FE099000283FF41D
:1058D000A6AE50461A9901F029FD099B1A93002F94
:1058E00000F38E80079B002B08DD5046149A069922
:1058F00001F0DAFE069000283FF491AE002C08DD9E
:1059000022465046069901F029FF069000283FF4F0
:1059100086AE002E08DD32465046049901F01EFF87
:10592000049000283FF47BAE5046069A1A9901F085
:10593000A1FF834600283FF472AE0024C368049997
:10594000C4600B9301F07AFFA0426BDA0B9B53EA21
:10595000080340F09180C9F31303002B40F08C80C2
:1059600029F000431B0D1B05B3F1D66F40F2848074
:10597000DBF814301BB9DBF81030012B7CDD594605
:105980000122504601F0EAFE0499834601F056FFD9
:10599000002871DD05994B46204A002900F08C80D3
:1059A00002EA0901B1F1D66F00F38680B1F15C7FA4
:1059B0007FF7AAAE40464946194B0022FAF78CFD04
:1059C0000B46034308BF22238046894608BFCAF816
:1059D00000302FE64FF0FF3202FA03F303EA080823
:1059E000E0E6C5F17F4505F57F0505F57B45E23528
:1059F00007FA05F50F9747E7012300250F9343E7C3
:105A00003A4650461A9901F0A9FE1A9000287FF4F0
:105A100069AF04E6A08D000802FCFFFF0000F07FE4
:105A200000005039CDF8249065D10B9AC9F31303C7
:105A30005AB3994A93422BD1059B414603B34A4638
:105A4000964B1340B3F1D46F4FF0FF321BD81B0DB0
:105A5000C3F16B0302FA03F3994219D1904B099AEF
:105A60009A4202D101313FF4DAAD4FF000088B4B7E
:105A7000099A1A4002F58019059B002B9AD1D9E5A5
:105A80004FF0FF33E8E71346E6E753EA080381D017
:105A9000E5B1099B1D42EFD00B9B40464946059A54
:105AA000C3B1FFF759FB02460B46DDE90C01FAF7DB
:105AB0005DFB80468946DFE71340A3F580136FEA5C
:105AC00013594FF0FF386FEA0959D5E70F9B13EAD6
:105AD000080FE0E7FFF740FB02460B46DDE90C014B
